{
  "contractName": "TokenFarm",
  "abi": [
    {
      "inputs": [
        {
          "internalType": "contract DappToken",
          "name": "_dappToken",
          "type": "address"
        },
        {
          "internalType": "contract DaiToken",
          "name": "_daiToken",
          "type": "address"
        }
      ],
      "payable": false,
      "stateMutability": "nonpayable",
      "type": "constructor"
    },
    {
      "constant": true,
      "inputs": [],
      "name": "daiToken",
      "outputs": [
        {
          "internalType": "contract DaiToken",
          "name": "",
          "type": "address"
        }
      ],
      "payable": false,
      "stateMutability": "view",
      "type": "function"
    },
    {
      "constant": true,
      "inputs": [],
      "name": "dappToken",
      "outputs": [
        {
          "internalType": "contract DappToken",
          "name": "",
          "type": "address"
        }
      ],
      "payable": false,
      "stateMutability": "view",
      "type": "function"
    },
    {
      "constant": true,
      "inputs": [
        {
          "internalType": "address",
          "name": "",
          "type": "address"
        }
      ],
      "name": "hasStaked",
      "outputs": [
        {
          "internalType": "bool",
          "name": "",
          "type": "bool"
        }
      ],
      "payable": false,
      "stateMutability": "view",
      "type": "function"
    },
    {
      "constant": true,
      "inputs": [
        {
          "internalType": "address",
          "name": "",
          "type": "address"
        }
      ],
      "name": "isStaking",
      "outputs": [
        {
          "internalType": "bool",
          "name": "",
          "type": "bool"
        }
      ],
      "payable": false,
      "stateMutability": "view",
      "type": "function"
    },
    {
      "constant": true,
      "inputs": [],
      "name": "name",
      "outputs": [
        {
          "internalType": "string",
          "name": "",
          "type": "string"
        }
      ],
      "payable": false,
      "stateMutability": "view",
      "type": "function"
    },
    {
      "constant": true,
      "inputs": [],
      "name": "owner",
      "outputs": [
        {
          "internalType": "address",
          "name": "",
          "type": "address"
        }
      ],
      "payable": false,
      "stateMutability": "view",
      "type": "function"
    },
    {
      "constant": true,
      "inputs": [
        {
          "internalType": "uint256",
          "name": "",
          "type": "uint256"
        }
      ],
      "name": "stakers",
      "outputs": [
        {
          "internalType": "address",
          "name": "",
          "type": "address"
        }
      ],
      "payable": false,
      "stateMutability": "view",
      "type": "function"
    },
    {
      "constant": true,
      "inputs": [
        {
          "internalType": "address",
          "name": "",
          "type": "address"
        }
      ],
      "name": "stakingBalance",
      "outputs": [
        {
          "internalType": "uint256",
          "name": "",
          "type": "uint256"
        }
      ],
      "payable": false,
      "stateMutability": "view",
      "type": "function"
    },
    {
      "constant": true,
      "inputs": [
        {
          "internalType": "address",
          "name": "",
          "type": "address"
        }
      ],
      "name": "timeOfStaked",
      "outputs": [
        {
          "internalType": "uint256",
          "name": "",
          "type": "uint256"
        }
      ],
      "payable": false,
      "stateMutability": "view",
      "type": "function"
    },
    {
      "constant": false,
      "inputs": [
        {
          "internalType": "uint256",
          "name": "_amount",
          "type": "uint256"
        }
      ],
      "name": "stakeTokens",
      "outputs": [],
      "payable": false,
      "stateMutability": "nonpayable",
      "type": "function"
    },
    {
      "constant": false,
      "inputs": [],
      "name": "unstakeTokens",
      "outputs": [],
      "payable": false,
      "stateMutability": "nonpayable",
      "type": "function"
    },
    {
      "constant": false,
      "inputs": [],
      "name": "issueTokens",
      "outputs": [],
      "payable": false,
      "stateMutability": "nonpayable",
      "type": "function"
    }
  ],
  "bytecode": "0x60806040526040518060400160405280600f81526020017f4441707020546f6b656e204661726d00000000000000000000000000000000008152506000908051906020019061004f929190610166565b5034801561005c57600080fd5b506040516200123f3803806200123f8339818101604052604081101561008157600080fd5b81019080805190602001909291908051906020019092919050505081600660006101000a81548173ffffffffffffffffffffffffffffffffffffffff021916908373ffffffffffffffffffffffffffffffffffffffff16021790555080600760006101000a81548173ffffffffffffffffffffffffffffffffffffffff021916908373ffffffffffffffffffffffffffffffffffffffff16021790555033600860006101000a81548173ffffffffffffffffffffffffffffffffffffffff021916908373ffffffffffffffffffffffffffffffffffffffff160217905550505061020b565b828054600181600116156101000203166002900490600052602060002090601f016020900481019282601f106101a757805160ff19168380011785556101d5565b828001600101855582156101d5579182015b828111156101d45782518255916020019190600101906101b9565b5b5090506101e291906101e6565b5090565b61020891905b808211156102045760008160009055506001016101ec565b5090565b90565b611024806200021b6000396000f3fe608060405234801561001057600080fd5b50600436106100d1576000357c0100000000000000000000000000000000000000000000000000000000900480637547c7a31161008e5780637547c7a3146102b95780638da5cb5b146102e7578063a5ce413b14610331578063be22f5461461033b578063c93c8f3414610385578063fd5e6dd1146103e1576100d1565b806306fdde03146100d65780633bf9f9e51461015957806345bc78ab146101b15780635eb186f81461020957806360ab5852146102535780636f49712b1461025d575b600080fd5b6100de61044f565b6040518080602001828103825283818151815260200191508051906020019080838360005b8381101561011e578082015181840152602081019050610103565b50505050905090810190601f16801561014b5780820380516001836020036101000a031916815260200191505b509250505060405180910390f35b61019b6004803603602081101561016f57600080fd5b81019080803573ffffffffffffffffffffffffffffffffffffffff1690602001909291905050506104ed565b6040518082815260200191505060405180910390f35b6101f3600480360360208110156101c757600080fd5b81019080803573ffffffffffffffffffffffffffffffffffffffff169060200190929190505050610505565b6040518082815260200191505060405180910390f35b61021161051d565b604051808273ffffffffffffffffffffffffffffffffffffffff1673ffffffffffffffffffffffffffffffffffffffff16815260200191505060405180910390f35b61025b610543565b005b61029f6004803603602081101561027357600080fd5b81019080803573ffffffffffffffffffffffffffffffffffffffff1690602001909291905050506108ed565b604051808215151515815260200191505060405180910390f35b6102e5600480360360208110156102cf57600080fd5b810190808035906020019092919050505061090d565b005b6102ef610cec565b604051808273ffffffffffffffffffffffffffffffffffffffff1673ffffffffffffffffffffffffffffffffffffffff16815260200191505060405180910390f35b610339610d12565b005b610343610f6d565b604051808273ffffffffffffffffffffffffffffffffffffffff1673ffffffffffffffffffffffffffffffffffffffff16815260200191505060405180910390f35b6103c76004803603602081101561039b57600080fd5b81019080803573ffffffffffffffffffffffffffffffffffffffff169060200190929190505050610f93565b604051808215151515815260200191505060405180910390f35b61040d600480360360208110156103f757600080fd5b8101908080359060200190929190505050610fb3565b604051808273ffffffffffffffffffffffffffffffffffffffff1673ffffffffffffffffffffffffffffffffffffffff16815260200191505060405180910390f35b60008054600181600116156101000203166002900480601f0160208091040260200160405190810160405280929190818152602001828054600181600116156101000203166002900480156104e55780601f106104ba576101008083540402835291602001916104e5565b820191906000526020600020905b8154815290600101906020018083116104c857829003601f168201915b505050505081565b60056020528060005260406000206000915090505481565b60026020528060005260406000206000915090505481565b600660009054906101000a900473ffffffffffffffffffffffffffffffffffffffff1681565b600860009054906101000a900473ffffffffffffffffffffffffffffffffffffffff1673ffffffffffffffffffffffffffffffffffffffff163373ffffffffffffffffffffffffffffffffffffffff1614610606576040517f08c379a00000000000000000000000000000000000000000000000000000000081526004018080602001828103825260198152602001807f63616c6c6c6572206d75737420626520746865206f776e65720000000000000081525060200191505060405180910390fd5b600080600260003373ffffffffffffffffffffffffffffffffffffffff1673ffffffffffffffffffffffffffffffffffffffff16815260200190815260200160002054905060008111156108e95760008111801561066657506103e88111155b156106df576301e1853e600560003373ffffffffffffffffffffffffffffffffffffffff1673ffffffffffffffffffffffffffffffffffffffff16815260200190815260200160002054816106b757fe5b046301e1853e42816106c557fe5b0403606460048302816106d457fe5b0402810191506107e7565b6103e8811180156106f257506107d08111155b1561076b576301e1853e600560003373ffffffffffffffffffffffffffffffffffffffff1673ffffffffffffffffffffffffffffffffffffffff168152602001908152602001600020548161074357fe5b046301e1853e428161075157fe5b04036064600883028161076057fe5b0402810191506107e6565b6107d08111156107e5576301e1853e600560003373ffffffffffffffffffffffffffffffffffffffff1673ffffffffffffffffffffffffffffffffffffffff16815260200190815260200160002054816107c157fe5b046301e1853e42816107cf57fe5b04036064600a8302816107de57fe5b0402810191505b5b5b600660009054906101000a900473ffffffffffffffffffffffffffffffffffffffff1673ffffffffffffffffffffffffffffffffffffffff1663a9059cbb33846040518363ffffffff167c0100000000000000000000000000000000000000000000000000000000028152600401808373ffffffffffffffffffffffffffffffffffffffff1673ffffffffffffffffffffffffffffffffffffffff16815260200182815260200192505050602060405180830381600087803b1580156108ac57600080fd5b505af11580156108c0573d6000803e3d6000fd5b505050506040513d60208110156108d657600080fd5b8101908080519060200190929190505050505b5050565b60046020528060005260406000206000915054906101000a900460ff1681565b60008111610983576040517f08c379a00000000000000000000000000000000000000000000000000000000081526004018080602001828103825260138152602001807f616d6f756e742063616e6e6f757420626520300000000000000000000000000081525060200191505060405180910390fd5b600760009054906101000a900473ffffffffffffffffffffffffffffffffffffffff1673ffffffffffffffffffffffffffffffffffffffff166323b872dd3330846040518463ffffffff167c0100000000000000000000000000000000000000000000000000000000028152600401808473ffffffffffffffffffffffffffffffffffffffff1673ffffffffffffffffffffffffffffffffffffffff1681526020018373ffffffffffffffffffffffffffffffffffffffff1673ffffffffffffffffffffffffffffffffffffffff1681526020018281526020019350505050602060405180830381600087803b158015610a7c57600080fd5b505af1158015610a90573d6000803e3d6000fd5b505050506040513d6020811015610aa657600080fd5b81019080805190602001909291905050505042600560003373ffffffffffffffffffffffffffffffffffffffff1673ffffffffffffffffffffffffffffffffffffffff1681526020019081526020016000208190555080600260003373ffffffffffffffffffffffffffffffffffffffff1673ffffffffffffffffffffffffffffffffffffffff1681526020019081526020016000205401600260003373ffffffffffffffffffffffffffffffffffffffff1673ffffffffffffffffffffffffffffffffffffffff16815260200190815260200160002081905550600360003373ffffffffffffffffffffffffffffffffffffffff1673ffffffffffffffffffffffffffffffffffffffff16815260200190815260200160002060009054906101000a900460ff16610c395760013390806001815401808255809150509060018203906000526020600020016000909192909190916101000a81548173ffffffffffffffffffffffffffffffffffffffff021916908373ffffffffffffffffffffffffffffffffffffffff160217905550505b6001600460003373ffffffffffffffffffffffffffffffffffffffff1673ffffffffffffffffffffffffffffffffffffffff16815260200190815260200160002060006101000a81548160ff0219169083151502179055506001600360003373ffffffffffffffffffffffffffffffffffffffff1673ffffffffffffffffffffffffffffffffffffffff16815260200190815260200160002060006101000a81548160ff02191690831515021790555050565b600860009054906101000a900473ffffffffffffffffffffffffffffffffffffffff1681565b6000600260003373ffffffffffffffffffffffffffffffffffffffff1673ffffffffffffffffffffffffffffffffffffffff16815260200190815260200160002054905060008111610dcc576040517f08c379a000000000000000000000000000000000000000000000000000000000815260040180806020018281038252601a8152602001807f7374616b696e672062616c616e63652063616e6e74206265203000000000000081525060200191505060405180910390fd5b600760009054906101000a900473ffffffffffffffffffffffffffffffffffffffff1673ffffffffffffffffffffffffffffffffffffffff1663a9059cbb33836040518363ffffffff167c0100000000000000000000000000000000000000000000000000000000028152600401808373ffffffffffffffffffffffffffffffffffffffff1673ffffffffffffffffffffffffffffffffffffffff16815260200182815260200192505050602060405180830381600087803b158015610e9157600080fd5b505af1158015610ea5573d6000803e3d6000fd5b505050506040513d6020811015610ebb57600080fd5b8101908080519060200190929190505050506000600260003373ffffffffffffffffffffffffffffffffffffffff1673ffffffffffffffffffffffffffffffffffffffff168152602001908152602001600020819055506000600460003373ffffffffffffffffffffffffffffffffffffffff1673ffffffffffffffffffffffffffffffffffffffff16815260200190815260200160002060006101000a81548160ff02191690831515021790555050565b600760009054906101000a900473ffffffffffffffffffffffffffffffffffffffff1681565b60036020528060005260406000206000915054906101000a900460ff1681565b60018181548110610fc057fe5b906000526020600020016000915054906101000a900473ffffffffffffffffffffffffffffffffffffffff168156fea265627a7a723158206d326b847d13161c9b84f8079385f7b2629afdade3c81d43e2836667cc67abb964736f6c63430005100032",
  "source": "pragma solidity ^0.5.0;\nimport \"./DappToken.sol\";\nimport \"./DaiToken.sol\";\n\n\n\ncontract TokenFarm{\n\t\n\n\tstring public name = \"DApp Token Farm\"; \n    \n    \taddress[] public stakers;\n\tmapping(address => uint256)public stakingBalance;\n\tmapping(address => bool)public hasStaked;\n\tmapping(address => bool)public isStaking;\n\tmapping(address =>uint256) public timeOfStaked;\n\n\n\tDappToken public dappToken;\n\tDaiToken public daiToken;\n\taddress public owner;\n\n\tconstructor(DappToken _dappToken , DaiToken _daiToken) public{\n\t\n\tdappToken=_dappToken;\n\tdaiToken= _daiToken;\n\towner = msg.sender;\n\n\t}\n// 1. Stake Tokens(deposit)\n\nfunction stakeTokens(uint256 _amount) public\n{\n\t\n\n\trequire(_amount > 0,\"amount cannout be 0\");\n\n\t//Transfer dai tokens to this contract for staking\n\n\tdaiToken.transferFrom(msg.sender,address(this),_amount);\n\ttimeOfStaked[msg.sender]=now;\n\n        //Update staking balance\n\tstakingBalance[msg.sender] = stakingBalance[msg.sender] +_amount;\n\n\t//add users to stakers array \n\n\tif(!hasStaked[msg.sender])\n\t{\n\t\tstakers.push(msg.sender);\n\t}\n\t\n\tisStaking[msg.sender]=true;\n\thasStaked[msg.sender]=true;\n\n}\n\n\n       // 2.Unstake All the Tokens(Withdraw) \n\tfunction unstakeTokens() public\n\t{\n\t\tuint256 balance = stakingBalance[msg.sender];\n\t\trequire((balance > 0),\"staking balance cannt be 0\");\n\t\tdaiToken.transfer(msg.sender,balance);\n\t\tstakingBalance[msg.sender]=0;\n\t\tisStaking[msg.sender] = false;\n\t}\n\n\n       // 3.Issuing Tokens\n\n\tfunction issueTokens() public\n\t{\n\n\trequire(msg.sender == owner,\"calller must be the owner\");\n\t\n\t\tuint256 nbalance; \n\t\n\t\t\n\t\tuint256 balance = stakingBalance[msg.sender]; // fetching the current wallet balance of the user .\n\t\tif(balance > 0)\n\t\t{\n\t\tif(balance >0 && balance <=1000)\n\t\t\n\t\t{\n\t\t\tnbalance = balance + ((balance*4) / 100 ) * ((now/31556926)-(timeOfStaked[msg.sender] /31556926)); // calculating the years of vesting period\n\t\t}\n\t\telse if(balance > 1000 && balance <=2000) \n\t\t{\n\t\t\tnbalance = balance + ((balance * 8)/100) * ((now/31556926)-(timeOfStaked[msg.sender]/31556926));\t\n\t\t}\n\t\telse if(balance > 2000)\n\t\t{\n\t\t\tnbalance = balance + ((balance * 10) / 100) *((now/31556926)-(timeOfStaked[msg.sender] /31556926)); \n\t\t}\n\t\t\n\t\tdappToken.transfer(msg.sender,nbalance); // Reward transferring...\n\t\t\n     \t\t}\n   }\n\n}\n",
  "sourcePath": "/home/venks/StakingApp/contracts/TokenFarm.sol",
  "compiler": {
    "name": "solc",
    "version": "0.5.16+commit.9c3226ce.Emscripten.clang"
  },
  "schemaVersion": "3.4.1",
  "updatedAt": "2021-06-18T18:25:32.374Z",
  "devdoc": {
    "methods": {}
  },
  "userdoc": {
    "methods": {}
  }
}